{
  "abi": [
    {
      "inputs": [],
      "stateMutability": "nonpayable",
      "type": "constructor"
    },
    {
      "anonymous": false,
      "inputs": [
        {
          "indexed": false,
          "internalType": "uint256",
          "name": "id",
          "type": "uint256"
        },
        {
          "indexed": false,
          "internalType": "string",
          "name": "title",
          "type": "string"
        },
        {
          "indexed": false,
          "internalType": "string",
          "name": "hash",
          "type": "string"
        },
        {
          "indexed": false,
          "internalType": "uint256",
          "name": "startDate",
          "type": "uint256"
        },
        {
          "indexed": false,
          "internalType": "uint256",
          "name": "endDate",
          "type": "uint256"
        }
      ],
      "name": "PollCreated",
      "type": "event"
    },
    {
      "anonymous": false,
      "inputs": [
        {
          "indexed": false,
          "internalType": "uint256",
          "name": "id",
          "type": "uint256"
        },
        {
          "indexed": false,
          "internalType": "string",
          "name": "title",
          "type": "string"
        },
        {
          "indexed": false,
          "internalType": "string",
          "name": "hash",
          "type": "string"
        },
        {
          "indexed": false,
          "internalType": "bool",
          "name": "published",
          "type": "bool"
        }
      ],
      "name": "PollUpdated",
      "type": "event"
    },
    {
      "inputs": [
        {
          "internalType": "string",
          "name": "title",
          "type": "string"
        },
        {
          "internalType": "string",
          "name": "hash",
          "type": "string"
        },
        {
          "internalType": "uint256",
          "name": "startDate",
          "type": "uint256"
        },
        {
          "internalType": "uint256",
          "name": "endDate",
          "type": "uint256"
        }
      ],
      "name": "createPoll",
      "outputs": [],
      "stateMutability": "nonpayable",
      "type": "function"
    },
    {
      "inputs": [
        {
          "internalType": "string",
          "name": "hash",
          "type": "string"
        }
      ],
      "name": "fetchPoll",
      "outputs": [
        {
          "components": [
            {
              "internalType": "uint256",
              "name": "id",
              "type": "uint256"
            },
            {
              "internalType": "string",
              "name": "title",
              "type": "string"
            },
            {
              "internalType": "string",
              "name": "description",
              "type": "string"
            },
            {
              "internalType": "uint256",
              "name": "startDate",
              "type": "uint256"
            },
            {
              "internalType": "uint256",
              "name": "endDate",
              "type": "uint256"
            },
            {
              "internalType": "bool",
              "name": "published",
              "type": "bool"
            }
          ],
          "internalType": "struct Polling.Poll",
          "name": "",
          "type": "tuple"
        }
      ],
      "stateMutability": "view",
      "type": "function"
    },
    {
      "inputs": [],
      "name": "fetchPolls",
      "outputs": [
        {
          "components": [
            {
              "internalType": "uint256",
              "name": "id",
              "type": "uint256"
            },
            {
              "internalType": "string",
              "name": "title",
              "type": "string"
            },
            {
              "internalType": "string",
              "name": "description",
              "type": "string"
            },
            {
              "internalType": "uint256",
              "name": "startDate",
              "type": "uint256"
            },
            {
              "internalType": "uint256",
              "name": "endDate",
              "type": "uint256"
            },
            {
              "internalType": "bool",
              "name": "published",
              "type": "bool"
            }
          ],
          "internalType": "struct Polling.Poll[]",
          "name": "",
          "type": "tuple[]"
        }
      ],
      "stateMutability": "view",
      "type": "function"
    },
    {
      "inputs": [],
      "name": "owner",
      "outputs": [
        {
          "internalType": "address",
          "name": "",
          "type": "address"
        }
      ],
      "stateMutability": "view",
      "type": "function"
    },
    {
      "inputs": [
        {
          "internalType": "address",
          "name": "newOwner",
          "type": "address"
        }
      ],
      "name": "transferOwnership",
      "outputs": [],
      "stateMutability": "nonpayable",
      "type": "function"
    },
    {
      "inputs": [
        {
          "internalType": "uint256",
          "name": "pollId",
          "type": "uint256"
        },
        {
          "internalType": "string",
          "name": "title",
          "type": "string"
        },
        {
          "internalType": "string",
          "name": "hash",
          "type": "string"
        },
        {
          "internalType": "bool",
          "name": "published",
          "type": "bool"
        }
      ],
      "name": "updatePoll",
      "outputs": [],
      "stateMutability": "nonpayable",
      "type": "function"
    }
  ],
  "bytecode": {
    "object": "0x608060405234801561001057600080fd5b50600080546001600160a01b03191633179055610e82806100326000396000f3fe608060405234801561001057600080fd5b50600436106100625760003560e01c806306aceddc146100675780631b8670b81461007c5780638da5cb5b1461009a578063ca9b06da146100c5578063f2fde38b146100d8578063ffa6af00146100eb575b600080fd5b61007a61007536600461089f565b61010b565b005b61008461023f565b60405161009191906109c8565b60405180910390f35b6000546100ad906001600160a01b031681565b6040516001600160a01b039091168152602001610091565b61007a6100d3366004610a2a565b610499565b61007a6100e6366004610aaf565b610607565b6100fe6100f9366004610adf565b610640565b6040516100919190610b1c565b6000546001600160a01b0316331461012257600080fd5b6001805461012f91610b45565b6001818155600082815260026020526040902091825581016101518682610be7565b50600381018390556004810182905560058101805460ff191660011790556002810161017d8582610be7565b508060038560405161018f9190610ca7565b908152604051908190036020019020815481556001808201906101b490840182610cc3565b506002818101906101c790840182610cc3565b5060038281015490820155600480830154908201556005918201549101805460ff191660ff90921615159190911790556001546040517fbdfea2c5fde3fa58c80eb0c5469e2934e50a8d40751384d5001668c4bcea5acb91610230918890889088908890610d9e565b60405180910390a15050505050565b60015460609060008167ffffffffffffffff811115610260576102606107fc565b6040519080825280602002602001820160405280156102cc57816020015b6102b96040518060c0016040528060008152602001606081526020016060815260200160008152602001600081526020016000151581525090565b81526020019060019003908161027e5790505b50905060005b828110156104925760006102e7826001610b45565b90506000600260008381526020019081526020016000209050806040518060c00160405290816000820154815260200160018201805461032690610b5e565b80601f016020809104026020016040519081016040528092919081815260200182805461035290610b5e565b801561039f5780601f106103745761010080835404028352916020019161039f565b820191906000526020600020905b81548152906001019060200180831161038257829003601f168201915b505050505081526020016002820180546103b890610b5e565b80601f01602080910402602001604051908101604052809291908181526020018280546103e490610b5e565b80156104315780601f1061040657610100808354040283529160200191610431565b820191906000526020600020905b81548152906001019060200180831161041457829003601f168201915b5050509183525050600382015460208201526004820154604082015260059091015460ff161515606090910152845185908590811061047257610472610dde565b60200260200101819052505050808061048a90610df4565b9150506102d2565b5092915050565b6000546001600160a01b031633146104b057600080fd5b6000848152600260205260409020600181016104cc8582610be7565b5060058101805460ff1916831515179055600281016104eb8482610be7565b50600085815260026020526040902081548155819060018082019061051290840182610cc3565b5060028181019061052590840182610cc3565b50600382810154828201556004808401549083015560059283015492909101805460ff191660ff909316151592909217909155604051829190610569908690610ca7565b9081526040519081900360200190208154815560018082019061058e90840182610cc3565b506002818101906105a190840182610cc3565b5060038281015490820155600480830154908201556005918201549101805460ff191660ff909216151591909117905580546040517f0575544a008857d2318a3258bded497653eea4e4bfb80f93e59c346decd6c9ff9161023091879087908790610e0d565b6000546001600160a01b0316331461061e57600080fd5b600080546001600160a01b0319166001600160a01b0392909216919091179055565b61067b6040518060c0016040528060008152602001606081526020016060815260200160008152602001600081526020016000151581525090565b60038260405161068b9190610ca7565b90815260200160405180910390206040518060c0016040529081600082015481526020016001820180546106be90610b5e565b80601f01602080910402602001604051908101604052809291908181526020018280546106ea90610b5e565b80156107375780601f1061070c57610100808354040283529160200191610737565b820191906000526020600020905b81548152906001019060200180831161071a57829003601f168201915b5050505050815260200160028201805461075090610b5e565b80601f016020809104026020016040519081016040528092919081815260200182805461077c90610b5e565b80156107c95780601f1061079e576101008083540402835291602001916107c9565b820191906000526020600020905b8154815290600101906020018083116107ac57829003601f168201915b5050509183525050600382015460208201526004820154604082015260059091015460ff16151560609091015292915050565b634e487b7160e01b600052604160045260246000fd5b600082601f83011261082357600080fd5b813567ffffffffffffffff8082111561083e5761083e6107fc565b604051601f8301601f19908116603f01168101908282118183101715610866576108666107fc565b8160405283815286602085880101111561087f57600080fd5b836020870160208301376000602085830101528094505050505092915050565b600080600080608085870312156108b557600080fd5b843567ffffffffffffffff808211156108cd57600080fd5b6108d988838901610812565b955060208701359150808211156108ef57600080fd5b506108fc87828801610812565b949794965050505060408301359260600135919050565b60005b8381101561092e578181015183820152602001610916565b50506000910152565b6000815180845261094f816020860160208601610913565b601f01601f19169290920160200192915050565b805182526000602082015160c0602085015261098260c0850182610937565b90506040830151848203604086015261099b8282610937565b915050606083015160608501526080830151608085015260a0830151151560a08501528091505092915050565b6000602080830181845280855180835260408601915060408160051b870101925083870160005b82811015610a1d57603f19888603018452610a0b858351610963565b945092850192908501906001016109ef565b5092979650505050505050565b60008060008060808587031215610a4057600080fd5b84359350602085013567ffffffffffffffff80821115610a5f57600080fd5b610a6b88838901610812565b94506040870135915080821115610a8157600080fd5b50610a8e87828801610812565b92505060608501358015158114610aa457600080fd5b939692955090935050565b600060208284031215610ac157600080fd5b81356001600160a01b0381168114610ad857600080fd5b9392505050565b600060208284031215610af157600080fd5b813567ffffffffffffffff811115610b0857600080fd5b610b1484828501610812565b949350505050565b602081526000610ad86020830184610963565b634e487b7160e01b600052601160045260246000fd5b80820180821115610b5857610b58610b2f565b92915050565b600181811c90821680610b7257607f821691505b602082108103610b9257634e487b7160e01b600052602260045260246000fd5b50919050565b601f821115610be257600081815260208120601f850160051c81016020861015610bbf5750805b601f850160051c820191505b81811015610bde57828155600101610bcb565b5050505b505050565b815167ffffffffffffffff811115610c0157610c016107fc565b610c1581610c0f8454610b5e565b84610b98565b602080601f831160018114610c4a5760008415610c325750858301515b600019600386901b1c1916600185901b178555610bde565b600085815260208120601f198616915b82811015610c7957888601518255948401946001909101908401610c5a565b5085821015610c975787850151600019600388901b60f8161c191681555b5050505050600190811b01905550565b60008251610cb9818460208701610913565b9190910192915050565b818103610cce575050565b610cd88254610b5e565b67ffffffffffffffff811115610cf057610cf06107fc565b610cfe81610c0f8454610b5e565b6000601f821160018114610d325760008315610d1a5750848201545b600019600385901b1c1916600184901b178455610d97565b600085815260209020601f19841690600086815260209020845b83811015610d6c5782860154825560019586019590910190602001610d4c565b5085831015610d8a5781850154600019600388901b60f8161c191681555b50505060018360011b0184555b5050505050565b85815260a060208201526000610db760a0830187610937565b8281036040840152610dc98187610937565b60608401959095525050608001529392505050565b634e487b7160e01b600052603260045260246000fd5b600060018201610e0657610e06610b2f565b5060010190565b848152608060208201526000610e266080830186610937565b8281036040840152610e388186610937565b91505082151560608301529594505050505056fea264697066735822122080a296ceaa218836b4c4df2a644d868a67e50d2a1cc42ac8124c0ef44f303fe064736f6c63430008130033",
    "linkReferences": {}
  },
  "methodIdentifiers": {
    "createPoll(string,string,uint256,uint256)": "06aceddc",
    "fetchPoll(string)": "ffa6af00",
    "fetchPolls()": "1b8670b8",
    "owner()": "8da5cb5b",
    "transferOwnership(address)": "f2fde38b",
    "updatePoll(uint256,string,string,bool)": "ca9b06da"
  },
  "id": 20
}